:100000000C94AF000C94D7000C94D7000C94380AD1
:100010000C94130A0C94EE090C94D7000C94D7009E
:100020000C94D7000C94D7000C94D7000C94D700F4
:100030000C94D7000C94D7000C94D7000C94D700E4
:100040000C94E81A0C94D7000C94E0170C94D70089
:100050000C94D7000C94D7000C94D7000C94D700C4
:100060000C94B7040C94D7008B0D110FE30D600FA7
:100070000E0E850F650ED40F680EE30FA50EF80F58
:10008000E10DE10DE10DE10D1D10B210F7107B1136
:10009000DB11E10DF20E084AD73B3BCE016E84BC6A
:1000A000BFFDC12F3D6C74319ABD56833DDA3D00D2
:1000B000C77F11BED9E4BB4C3E916BAAAABE00001B
:1000C00000803F00000000240027002A00000000FC
:1000D00000250028002B0000000000230026002936
:1000E00000040404040404040402020202020203E1
:1000F00003030303030102040810204080010204EB
:10010000081020010204081020000000070002016E
:1001100000000304060000000000000000494E46F5
:10012000494E4954594E414ECDCCCC3D0AD7233C83
:1001300017B7D13877CC2B329595E6241FB14F0AEB
:10014000000020410000C84200401C4620BCBE4CBC
:10015000CA1B0E5AAEC59D74B0038707D51811246B
:100160001FBECFEFD8E0DEBFCDBF11E0A0E0B1E011
:10017000ECE6F0E402C005900D92A239B107D9F780
:1001800014E0A2E9B1E001C01D92A73BB107E1F77D
:1001900011E0CEE5D1E004C02297FE010E94EE1FDF
:1001A000C835D107C9F70E94D9170C9434200C9494
:1001B00000000F931F93CF93DF93689F8001699F87
:1001C000100D789F100D1124C8010E94F500EC015C
:1001D000009729F060E070E0A8010E94FB01CE01C9
:1001E000DF91CF911F910F910895CF93DF93BC01C1
:1001F0008230910510F462E070E0A091B304B091F8
:10020000B404ED01E0E0F0E040E050E021C088817E
:1002100099818617970769F48A819B81309719F035
:100220009383828304C09093B4048093B304FE014B
:1002300034C06817790738F44115510519F084174F
:10024000950708F4AC01FE018A819B819C01E901BC
:100250002097E9F641155105A9F1CA01861B970BB4
:10026000049708F4BA01E0E0F0E02AC08D919C9177
:10027000119784179507F9F46417750781F412969E
:100280008D919C911397309719F09383828304C0CA
:100290009093B4048093B304FD0132964CC0CA011C
:1002A000861B970BFD01E80FF91F6193719302976D
:1002B0008D939C9340C0FD01828193819C01D90163
:1002C0001097A1F68091B1049091B204892B41F46A
:1002D00080910401909105019093B2048093B10440
:1002E00040910601509107014115510541F44DB768
:1002F0005EB78091020190910301481B590B209138
:10030000B1043091B204CA01821B930B8617970780
:1003100080F0AB014E5F5F4F8417950750F0420F9E
:10032000531F5093B2044093B104F9016193719348
:1003300002C0E0E0F0E0CF01DF91CF910895CF93CC
:10034000DF93009709F450C0EC0122971B821A82B8
:10035000A091B304B091B404109709F140E050E0CB
:10036000AC17BD0708F1BB83AA83FE01219131912F
:10037000E20FF31FAE17BF0779F48D919C9111978F
:10038000280F391F2E5F3F4F3983288312968D9196
:100390009C9113979B838A834115510571F4D093E7
:1003A000B404C093B30420C012968D919C9113970E
:1003B000AD01009711F0DC01D3CFFA01D383C283E2
:1003C00021913191E20FF31FCE17DF0769F4888185
:1003D0009981280F391F2E5F3F4FFA013183208307
:1003E0008A819B8193838283DF91CF9108956627D1
:1003F00077270C940202DC0101C06D9341505040FC
:10040000E0F70895A0E0B0E0E8E0F2E00C9403200B
:10041000EC015B016115710519F0FB01918380838B
:10042000F9908F2D90E00E94F21F892BC9F7FDE211
:10043000FF1621F4F990EE24E39405C02BE2F216A6
:1004400009F4F990EE248E0101501040C8016DE1CD
:1004500071E043E050E00E946203892B01F58E01B8
:100460000E5F1F4FC80160E271E045E050E00E945E
:100470006203892B19F48E01095F1F4FA114B10487
:1004800019F0F50111830083E0FC04C070E090E0F6
:1004900080E814C070E090E080E86FEF08C1C80108
:1004A00065E271E043E050E00E946203892B69F449
:1004B000A114B10429F470E090E080EC6FE7F7C07C
:1004C0002296F501D183C083F6CF8824992440E099
:1004D00050E060E070E0EF2DE053EA30A0F5F2E08C
:1004E000EF2A8E2D90E09C0128703070E2FE06C04D
:1004F000232B79F50894811C911C2BC0232B19F018
:10050000089481089108DB01CA0112E0880F991F45
:10051000AA1FBB1F1A95D1F7480F591F6A1F7B1FCF
:10052000440F551F661F771F4E0F511D611D711D12
:10053000483929E9520729E9620729E1720748F099
:1005400084E0E82A06C0EE3F31F4E3FC39C098E0CD
:10055000E92AF990C0CFE53311F0E53189F5299109
:100560002D3219F4E0E1EE2A05C02B3219F081E0BA
:1005700090E003C0299182E090E0E22FE053EA305E
:1005800018F0C81BD90B1CC020E030E0FCE020387C
:100590003F075CF4C901880F991F880F991F280F26
:1005A000391F220F331F2E0F311DE991E053EA301E
:1005B00068F3E4FE03C0309521953F4F820E931EF1
:1005C000CE2CDD24E1FE07C0A114B10421F0219757
:1005D000F501D183C083CB01BA010E94401E7B018B
:1005E0008C01F3E0CF22DD2423E0C216D10421F4F4
:1005F00017FB109517F9109557016801C801B7014D
:1006000020E030E040E050E00E94A31D882309F480
:100610004AC097FE0DC02CE3E22E21E0F22E90940A
:10062000819491089394C0E2D0E000E010E012C001
:1006300094E5E92E91E0F92EF6CFF7012591359159
:1006400045915491C601B5010E94221F5B016C01C6
:100650008C1A9D0A8C169D0684F7D595C7950F5F59
:100660001F4F0630110529F08CEF9FEFE80EF91EA1
:10067000F1CFC501D6017C018D018C2D880F8D2D08
:10068000881F8F3F51F0C601B50120E030E040E007
:1006900050E00E94A31D882331F482E290E0909301
:1006A000B6048093B5047E2D9F2D802F612F272FB8
:1006B000392F482F562FB901CA01CDB7DEB7ECE06C
:1006C0000C941F20FB01DC014150504088F08D91BB
:1006D00081341CF08B350CF4805E659161341CF024
:1006E0006B350CF4605E861B611171F3990B0895F4
:1006F000881BFCCFF999FECF72BD61BDF89A80B519
:100700000895F999FECF1FBA72BD61BD40BD0FB605
:10071000F894FA9AF99A0FBE089581E080939C01AB
:100720006093970110929A0110929B010895809115
:10073000960190919501891B089590919501809162
:100740009601981710F080E00895E0919301F091E0
:100750009401E90FF11D80819F5F909395010895A9
:100760000895DF93CF930F92CDB7DEB76983809161
:100770009C018823A9F080919B018032B0F4809184
:100780009A01E0919801F0919901E80FF11D6083C1
:1007900080919A018F5F80939A0180939B0105C09D
:1007A000CE01019661E00E949A040F90CF91DF91F3
:1007B00008950E94B1030895609198017091990184
:1007C0008091970140919B0121E00E945504109275
:1007D0009A0110929B0110929C010895862F6091BE
:1007E000930170919401413208F040E20E941F048D
:1007F000109295018093960108950E94EE0308954A
:1008000080E290E061E070E00E94D9008093930163
:1008100090939401109295011092960180E290E0DD
:1008200061E070E00E94D900809398019093990153
:1008300010929A0110929B010E9439060895982FF8
:10084000413210F040E02FC080919E018823E1F7F3
:1008500081E080939E018FEF8093AF011092A601FB
:100860004093A701990F916090939F0185EE80932B
:10087000BC0080919E018130E1F38091A601841734
:1008800010F44091A601A091A401B091A50120E02F
:1008900030E007C0FB01E20FF31F8D9180832F5FD3
:1008A0003F4F2417B8F3842F08951F93582F122F0A
:1008B000413210F081E03CC080919E018823E1F735
:1008C00082E080939E018FEF8093AF011092A6018A
:1008D0004093A701A091A401B091A501FB0102C022
:1008E00081918D938E2F861B8417D0F3852F90E0F6
:1008F000880F991F80939F0185EE8093BC00112380
:1009000021F080919E018230E1F38091AF018F3F11
:1009100011F480E00DC08091AF01803211F482E0CB
:1009200007C08091AF01803311F084E001C083E003
:100930001F910895482F613210F081E00895809151
:100940009E01843011F082E008956093AB01A09184
:10095000A801B091A901842F9C01F90102C08191E5
:100960008D938E2F841B8617D0F380E008951F92FD
:100970000F920FB60F9211242F933F934F935F93D3
:100980006F937F938F939F93AF93BF93EF93FF9357
:100990008091B90090E0887F90708036910509F4CD
:1009A000E2C081369105CCF58832910509F47BC00F
:1009B00089329105B4F48031910509F46FC0813119
:1009C00091053CF4009709F438C1089709F040C13B
:1009D00065C08831910509F466C0809709F038C177
:1009E0007FC08034910509F4A3C08134910544F49B
:1009F0008033910509F47FC0C89709F029C186C0EA
:100A00008035910509F486C08835910509F495C0B3
:100A10008834910509F01CC19EC08839910509F4FC
:100A200004C189399105ECF48837910509F49BC01C
:100A3000893791054CF48836910509F494C08037C4
:100A4000910509F005C18FC08838910509F4EDC002
:100A50008039910509F48DC08038910509F0F8C0FE
:100A600088C0803B910509F4B2C0813B91054CF4EC
:100A7000803A910509F491C0883A910509F0E8C0DF
:100A8000A6C0803C910509F4D4C0883C910509F4C6
:100A9000D0C0883B910509F0DBC0B1C080919F01B7
:100AA0008093BB00C0C09091A6018091A7019817C8
:100AB00078F49091A601E091A401F091A501E90FCD
:100AC000F11D80818093BB009F5F9093A601ABC016
:100AD00085ED8093BC008091BC0084FDFCCFB6C046
:100AE00080E28093AF0185ED8093BC008091BC00D3
:100AF00084FDFCCFABC080E38093AF0185ED809394
:100B0000BC008091BC0084FDFCCFA0C088E3809332
:100B1000AF018FC08091A6019091BB00E091A4012C
:100B2000F091A501E80FF11D90838F5F8093A601DE
:100B30009091A6018091A70174C08091A601909127
:100B4000BB00E091A401F091A501E80FF11D908395
:100B50008F5F8093A60185ED8093BC008091BC00DF
:100B600084FDFCCF73C083E080939E011092AE01A0
:100B70005AC08091AE01803208F057C08091AE011A
:100B80009091BB00E091AC01F091AD01E80FF11D37
:100B900090838F5F8093AE0146C08091AE0180321A
:100BA00048F48091AE01E091AC01F091AD01E80F05
:100BB000F11D10826091AE01E091A201F091A301BC
:100BC0008091AC019091AD0170E0099532C084E054
:100BD00080939E011092AA011092AB01E091A001B6
:100BE000F091A10109958091AB01882341F481E046
:100BF0008093AB01E091A801F091A901108290913E
:100C0000AA01E091A801F091A901E90FF11D8081ED
:100C10008093BB009F5F9093AA019091AA0180915D
:100C2000AB01981710F485EC01C085E88093BC00F7
:100C30000FC085EC8093BC0009C01092AF0185ED18
:100C40008093BC008091BC0084FDFCCF10929E017B
:100C5000FF91EF91BF91AF919F918F917F916F9194
:100C60005F914F913F912F910F900FBE0F901F906A
:100C7000189510929E01E9EBF0E080818E7F8083D1
:100C800080818D7F808388E48093B80085E48093A1
:100C9000BC0080E290E061E070E00E94D9008093A7
:100CA000A4019093A50180E290E061E070E00E94D1
:100CB000D9008093A8019093A90180E290E061E0BF
:100CC00070E00E94D9008093AC019093AD0108952B
:100CD0002F923F924F925F926F927F928F929F924C
:100CE000AF92BF92CF92DF92EF92FF920F931F933A
:100CF000CF93DF93EC011A012B01CB01BA012E89AE
:100D00003F89488D598D0E94DD1C7B018C016E8BC3
:100D10007F8B888F998F6C847D848E849F846401FF
:100D20005301D7FAD094D7F8D094A60195010E9428
:100D3000A31D88231CF4350146010AC0C801B70170
:100D4000A40193010E94171F181614F037014801DF
:100D50006E8A7F8A888E998EC201B1012A893B8969
:100D60004C895D890E94DC1C288539854A855B8514
:100D70000E94221F5B016C012A8A3B8A4C8A5D8A91
:100D8000C201B101288139814A815B810E94221F01
:100D90007B018C016C817D818E819F81A4019301F7
:100DA0000E94221F9B01AC01C801B7010E94DD1CFB
:100DB000A60195010E94DD1CDF91CF911F910F913B
:100DC000FF90EF90DF90CF90BF90AF909F908F906B
:100DD0007F906F905F904F903F902F9008951F935A
:100DE000CF93DF93A82FEA01282F30E0C9018B5061
:100DF0009F4FFC0114912F513F4FF901449144231F
:100E000071F1425050E0FA01EE0FFF1FEB57FE4F19
:100E100020813181CA01B3E0880F991FBA95E1F7AB
:100E2000A770A80FEA2FF0E0EE0FFF1FDF01AB560F
:100E3000BC4F6D937C93EB53FC4FD183C083F9017E
:100E40008081812B80832091680081E090E002C046
:100E5000880F991F4A95E2F7282B20936800DF91AD
:100E6000CF911F910895EF92FF920F931F937901F5
:100E70008A01FC0180816623F9F48823D1F0828104
:100E80009381A481B581281B390B4A0B5B0BDA01D6
:100E9000C90184589340A040B040815B9440A04079
:100EA000B04038F42683378340875187118220E091
:100EB00001C021E010821BC08823B1F420E08281B0
:100EC0009381A481B581B801A701481B590B6A0B16
:100ED0007B0BDB01CA0180589E43A040B040815487
:100EE0009F41A040B04008F021E081E08083E28291
:100EF000F38204831583222329F08181843010F446
:100F00008F5F81831F910F91FF90EF900895EBEB1E
:100F1000F1E08CE392E060E07FE820E030E040E048
:100F200050E01082948383839283818376836583E8
:100F30001782108621873287438754877296A1E0F3
:100F4000E13FFA0771F72093F4013093F5014093E4
:100F5000F6015093F70180E090E0A0E0B0E88093C4
:100F6000F0019093F101A093F201B093F30120936B
:100F7000FC013093FD014093FE015093FF018093EB
:100F8000F8019093F901A093FA01B093FB0120932B
:100F900004023093050240930602509307028093A7
:100FA000000290930102A0930202B09303022093E7
:100FB0001E0230931F02409320025093210220937F
:100FC00038023093390240933A0250933B02209307
:100FD000520230935302409354025093550220938F
:100FE0006C0230936D0240936E0250936F02209317
:100FF000860230938702409388025093890220939F
:10100000A0023093A1024093A2025093A30208953C
:10101000FF920F931F9310E000E0FF2483E994E018
:101020000E948618882341F46AE070E080E090E036
:101030000E94911B0F5F0CC083E994E00E949A18F4
:10104000F82EE12FF0E0EB52FD4F80831F5F00E0B0
:101050008BE3F81689F0053010F41F37F8F2E12F12
:10106000F0E0EB52FD4F108285ED92E00E94F70117
:101070001F910F91FF9008951150F1CF83E994E0F3
:101080006CE20E940C1908955F926F927F928F928A
:101090009F92AF92BF92CF92DF92EF92FF920F9307
:1010A0001F93CF93DF93EC013A014B01502E33276E
:1010B00027FD3095432F532FCA01B9010E94421ECC
:1010C0005B016C0124EE38E34EE551E40E94171FEA
:1010D00087FF27C0C601B50124EE38E34EE551EC89
:1010E0000E94A31D1816ECF4602F772767FD7095FA
:1010F000872F972F0E94421E7B018C0124EE38E33C
:101100004EE551E40E94171F87FF0BC0C801B701CD
:1011100024EE38E34EE551EC0E94A31D18160CF4A2
:1011200041C0652D772767FD7095872F972F0E9407
:10113000421E9B01AC01C601B5010E94501D2C81CD
:101140003D814E815F810E94DC1C5B016C0120911E
:10115000CE023091CF024091D0025091D1020E9434
:10116000221F288139814A815B810E94DD1C7B011D
:101170008C01688379838A839B83C601B5012091A2
:10118000CA023091CB024091CC025091CD020E9414
:10119000221F9B01AC01C801B7010E94DD1CA40104
:1011A000930106C0C401B301288139814A815B8162
:1011B0000E94DD1C20911A0130911B0140911C01FD
:1011C00050911D010E94221F9B01AC016C817D8109
:1011D0008E819F810E94DD1C6C837D838E839F8323
:1011E0002C813D814E815F81B901CA01DF91CF9190
:1011F0001F910F91FF90EF90DF90CF90BF90AF9035
:101200009F908F907F906F905F900895CF93DF9322
:10121000C5E5D3E084E0188289831A821B821C8290
:101220001D821E821F82188619862A9693E0C13974
:10123000D90789F784E060E00E946F1C82E060E0DB
:101240000E946F1C85E060E00E946F1C86E060E0F9
:101250000E946F1C87E060E00E946F1C88E060E0E5
:101260000E946F1CEC9784E063E377E0AE010E947C
:10127000EF062A9682E063E377E0AE010E94EF0674
:101280002A9685E063E377E0AE010E94EF062A9696
:1012900086E063E377E0AE010E94EF062A9687E0DE
:1012A00063E377E0AE010E94EF062A9688E063E3ED
:1012B00077E0AE010E94EF0681E0DF91CF910895C3
:1012C000FC01862F608360E00E946F1C08952F92BE
:1012D0003F924F925F926F927F928F929F92AF92C6
:1012E000BF92CF92DF92EF92FF920F931F93CF9313
:1012F000DF93182F0E94661B4B015C01C12FD0E0C9
:10130000FE01EE0FFF1FE552FF4F45905490F20192
:101310009081FE01EE56FC4F6081FE01EE0FFF1F33
:10132000EB57FE4F60807180F3018081692768234D
:101330009E01220F220F220F222E37C0FF24F3948A
:1013400000E010E0C62EDD24E62EE922E22DE00FBB
:101350008F2D90E08C219D21892BA1F0AE2FB0E044
:10136000AA0FBB1FFD01EB56FC4F0190F081E02D51
:10137000309741F0AB53BC4F8D919C916E2DA501E0
:1013800094010995FF0C0F5F1F4F08301105F1F60E
:10139000F2019081F3018081632D6927682329F090
:1013A000809191038F5F80939103392E662331F6EC
:1013B000CE56DC4F9883DF91CF911F910F91FF9014
:1013C000EF90DF90CF90BF90AF909F908F907F90E5
:1013D0006F905F904F903F902F9008951F920F92C3
:1013E0000FB60F9211242F933F934F935F936F93F8
:1013F0007F938F939F93AF93BF93EF93FF9382E07D
:101400000E946709FF91EF91BF91AF919F918F91DA
:101410007F916F915F914F913F912F910F900FBEF0
:101420000F901F9018951F920F920FB60F921124D4
:101430002F933F934F935F936F937F938F939F93DC
:10144000AF93BF93EF93FF9381E00E946709FF91F1
:10145000EF91BF91AF919F918F917F916F915F912C
:101460004F913F912F910F900FBE0F901F901895A5
:101470001F920F920FB60F9211242F933F934F9309
:101480005F936F937F938F939F93AF93BF93EF93EC
:10149000FF9380E00E946709FF91EF91BF91AF91A8
:1014A0009F918F917F916F915F914F913F912F917C
:1014B0000F900FBE0F901F9018952F923F924F9252
:1014C0005F926F927F928F929F92AF92BF92CF92D4
:1014D000DF92EF92FF920F931F93DF93CF93CDB7DD
:1014E000DEB72D970FB6F894DEBF0FBECDBF882EA6
:1014F000592E262E7987442E352E2A873B878091B8
:101500000904882351F5109205041092FE031092ED
:10151000FD031092F6031092F50310920604109248
:1015200000041092FF031092F8031092F703109238
:10153000070410920204109201041092FA03109210
:10154000F9031092080410920404109203041092FC
:10155000FC031092FB039924F2C080910A048F5F70
:1015600080930A046DEF73E0A5E0EA2EA4E0FA2E62
:10157000AE014F5F5F4FA5EFB3E09924082F10E055
:101580000F701070FFEF6F2E712CE4EBAE2EB12CAC
:1015900036E9C32ED12CFB0180819181F701208196
:1015A000FC01E20FF11D24E0969587952A95E1F75D
:1015B000E81BF90BFD87EC879F01FB01318320833A
:1015C00001151105B9F48D919C9111979C01F4E0DE
:1015D00036952795FA95E1F7821B930B2C853D856F
:1015E000E4E036952795EA95E1F7280F391F119623
:1015F0003C932E938D919C9111978156994020F0A8
:10160000FA01D182C08208C02C853D8521543B401F
:1016100030F0FA01B182A0829924939403C0FA01B8
:10162000718260826E5F7F4F0894E11CF11C4E5FF7
:101630005F4F1296F4E065307F0709F0ACCF882D3C
:10164000952D9C012F3F310519F014F02FEF30E05C
:10165000D90137FF02C0A0E0B0E0842D932D9C019A
:101660002138310514F020E830E089012FEF0038EF
:10167000120714F400E81FEF822D99859C01213890
:10168000310514F020E830E0F9013FEFE038F307CE
:1016900014F4E0E8FFEF8A859B859C012138310531
:1016A00014F020E830E0B9018FEF2038380714F447
:1016B00060E87FEFCF018A0F9B1F860F971F97FF70
:1016C00002C080E006C049815A81481759070CF4CE
:1016D000CA01809305049D012E1B3F0B260F371F67
:1016E00037FF02C080E007C08B819C81821793077F
:1016F0000CF49C01822F80930604C8018A0F9B1F63
:10170000861B970B97FF02C080E006C04D815E816B
:10171000481759070CF4CA01809307049D01201B48
:10172000310B261B370B37FF02C020E006C08F812C
:101730009885821793070CF49C012093080460910C
:1017400005048AE070E00E94161C6091060489E09E
:1017500070E00E94161C6091070483E070E00E9414
:10176000161C609108048BE070E00E94161C892D05
:101770002D960FB6F894DEBF0FBECDBFCF91DF918F
:101780001F910F91FF90EF90DF90CF90BF90AF909F
:101790009F908F907F906F905F904F903F902F9091
:1017A00008951092090480E090E060E070E040E06D
:1017B00050E020E030E00E945D0A08959C0100970F
:1017C00049F41092C5021092C4021092C7021092FE
:1017D000C6020895FC01EE0FFF1FE159FE4F019074
:1017E000F081E02D80818E3F29F43093C702209351
:1017F000C60204C03093C5022093C40281E08093E6
:10180000C90281818093C8028DE061E00E948F1C33
:101810000895CF93DF93C091C602D091C70220975D
:1018200031F4C091C402D091C502209751F1FE015C
:10183000EE0FFF1FE159FE4F0190F081E02D8091E6
:10184000C80281508093C8028823D9F46091C902EC
:101850006F5F6093C902E60FF11DE081EE2359F43A
:101860001092C7021092C6028091C4029091C502E4
:101870000E94DE0B06C0E093C80261708DE00E94FA
:101880008F1CCE01DF91CF9108958DE060E00E9422
:101890008F1C0895AF92BF92CF92DF92EF92FF928A
:1018A0000F931F93CF93DF93EC0188810E94F81B65
:1018B0009C019B838A838E819F81AC0166E0569553
:1018C00047956A95E1F7B901641B750BAB01860F6B
:1018D000971F9F838E838C819D81281B390B4E5FC0
:1018E0005F4F4530510538F42536310524F47FEF3C
:1018F0002C39370724F419868981888707C08981A4
:101900009885891B843610F081E08987B901882782
:1019100077FD8095982F0E94421E2EE733E443E81E
:1019200052E40E94A71D7B018C016A877B878C870C
:101930009D876091BE027091BF028091C00290911C
:10194000C1022E853F85488959890E94221F5B016B
:101950006C01C801B7012091BA023091BB024091DD
:10196000BC025091BD020E94221F9B01AC01C60126
:10197000B5010E94DD1C6E877F87888B998B8981DA
:101980008F5F8983DF91CF911F910F91FF90EF902F
:10199000DF90CF90BF90AF900895CF92DF92EF92FB
:1019A000FF920F931F93DF93CF9300D000D0CDB75A
:1019B000DEB79C0149835A836B837C837E01089444
:1019C000E11CF11C75E0C72ED12CCC0EDD1E0CC025
:1019D00089010F5F1F4FF70141917F0182E991E07B
:1019E000B9010E9481039801EC14FD0489F70F905E
:1019F0000F900F900F90CF91DF911F910F91FF905B
:101A0000EF90DF90CF90089540911601509117010B
:101A100060911801709119018091D2029091D302C6
:101A20000E94CD0C08954091BA025091BB02609182
:101A3000BC027091BD028091C2029091C3020E94CB
:101A4000CD0C0895EF92FF920F931F937C01FC0140
:101A5000008911894081518162817381C8010E948E
:101A6000CD0C0C5F1F4FF701448155816681778152
:101A7000C8010E94CD0C0C5F1F4FF70140855185B6
:101A800062857385C8010E94CD0CF7014485558598
:101A900066857785C80104960E94CD0C1F910F9131
:101AA000FF90EF9008950F931F9302E911E0C80192
:101AB00060E070E042E00E948103C80161E070E0F4
:101AC0004DEF0E94810381E080930B041F910F91E1
:101AD0000895AF92BF92CF92DF92EF92FF920F9351
:101AE0001F93DF93CF9300D00F92CDB7DEB7992726
:101AF00087FD9095A92FB92FFC01E154F040E73103
:101B0000F10508F05EC0EC5CFF4FEE0FFF1F059083
:101B1000F491E02D09940E940808609308027093E4
:101B2000090280930A0290930B020E9408086093B6
:101B30000C0270930D0280930E0290930F020E948C
:101B40000808609310027093110280931202909320
:101B500013020F2EF0E0EF2EF0E0FF2EF0E00F2F3B
:101B6000F0E01F2FF02DE0921E02F0921F02009372
:101B70002002109321020E940808609322027093B1
:101B8000230280932402909325020E940808609308
:101B900026027093270280932802909329020E94C4
:101BA000080860932A0270932B0280932C02909372
:101BB0002D02E0923802F092390200933A0210931B
:101BC0003B0280E045C40E94080860933C02709389
:101BD0003D0280933E0290933F020E94080860936A
:101BE00040027093410280934202909343020E940C
:101BF00008086093440270934502809346029093D4
:101C0000470280E090E0A0E0B0E080935202909321
:101C10005302A0935402B0935502D3CF0E940808F8
:101C20006093560270935702809358029093590222
:101C30000E94080860935A0270935B0280935C02D2
:101C400090935D020E94080860935E0270935F02A9
:101C500080936002909361020F2EF0E0EF2EF0E08F
:101C6000FF2EF0E00F2FF0E01F2FF02DE0926C021E
:101C7000F0926D0200936E0210936F020E940808AA
:101C8000609370027093710280937202909373025A
:101C90000E94080860937402709375028093760224
:101CA000909377020E9408086093780270937902FB
:101CB00080937A0290937B02E0928602F0928702F0
:101CC00000938802109389027CCF0E9408083AC0D2
:101CD0000E940808609308017093090180930A012B
:101CE00090930B0160931402709315028093160277
:101CF0009093170260932E0270932F02809330020C
:101D000090933102609348027093490280934A0293
:101D100090934B026093620270936302809364021B
:101D20009093650260937C0270937D0280937E02A3
:101D300090937F026093960270939702809398022B
:101D4000909399020E9408083CCF0E9408089B01CA
:101D5000AC016093BA027093BB028093BC02909373
:101D6000BD0260E070E080E89FE30E94DC1C6093AD
:101D7000BE027093BF028093C0029093C1020E9482
:101D800008080E9408087B018C016093160170937B
:101D900017018093180190931901A80197010E94DF
:101DA000DD1C6093CA027093CB028093CC029093A7
:101DB000CD02C801B70120911A0130911B01409159
:101DC0001C0150911D010E94221FA80197010E9431
:101DD000221F6093CE027093CF028093D002909323
:101DE000D102EFCE0E94130D0E94040D88E092E014
:101DF0000E94220D86E592E00E94220D82E292E08E
:101E00000E94220D80E792E00E94220D8CE392E076
:101E10000E94220D8AE892E00E94220D0E94530D3A
:101E2000D0CE409108025091090260910A0270914F
:101E30000B0283E994E00E94D91A0E943E08409167
:101E40000C0250910D0260910E0270910F0283E915
:101E500094E00E94D91A0E943E08409110025091CD
:101E60001102609112027091130283E994E00E94C2
:101E7000D91A0E943E08409122025091230260919B
:101E800024027091250283E994E00E94D91A0E94ED
:101E90003E084091260250912702609128027091DD
:101EA000290283E994E00E94D91A0E943E084091D9
:101EB0002A0250912B0260912C0270912D02B8C021
:101EC00040913C0250913D0260913E0270913F0270
:101ED00083E994E00E94D91A0E943E084091400292
:101EE00050914102609142027091430283E994E073
:101EF0000E94D91A0E943E08409144025091450226
:101F0000609146027091470293C0409156025091F1
:101F10005702609158027091590283E994E00E943F
:101F2000D91A0E943E0840915A0250915B0260917A
:101F30005C0270915D0283E994E00E94D91A0E94CC
:101F40003E0840915E0250915F0260916002709184
:101F5000610283E994E00E94D91A0E943E084091F0
:101F6000700250917102609172027091730283E964
:101F700094E00E94D91A0E943E0840917402509148
:101F80007502609176027091770283E994E00E9475
:101F9000D91A0E943E0840917802509179026091CE
:101FA0007A0270917B0244C083E994E060E070E0C3
:101FB0000E941A1A0E943E0883E994E060E070E0F3
:101FC0000E94221AFECD40910801509109016091B2
:101FD0000A0170910B0183E994E00E94D91A0E94D2
:101FE0003E0883E994E040E050E060E070E022C009
:101FF0004091BA025091BB026091BC027091BD0247
:1020000083E994E00E94D91A0E943E0883E994E093
:1020100040E050E060E070E00E94D91A0E943E0863
:1020200040911601509117016091180170911901AA
:1020300083E994E00E94DD1AC4CD04EC11E0F801BC
:10204000608171818281938120EE3EE245E652E417
:102050000E94221F0E940F1E9B01AC0183E994E0A5
:10206000B9010E941A1A0E943E080E5E1F4FF1E04D
:102070000A3F1F0721F760910C04698380910D04CA
:102080008A8300910E040B83772767FD709583E99F
:1020900094E00E941A1A0E943E086A81772767FD21
:1020A000709583E994E00E941A1A0E943E08112755
:1020B00007FD109583E994E0B8010E941A1A0E9466
:1020C0003E086091A4027091A5028091A6029091B1
:1020D000A7020E940F1E9B01AC0183E994E0B901A5
:1020E0000E941A1A0E943E086091A8027091A902EB
:1020F0008091AA029091AB020E940F1E9B01AC013D
:1021000083E994E0B9010E941A1A0E943E08609186
:10211000F4017091F5018091F6019091F70120EEA4
:102120003EE245E652E40E94221FAB01BC0183E976
:1021300094E00E94D91A0E943E086091FC017091BF
:10214000FD018091FE019091FF0120EE3EE245E607
:1021500052E40E94221FAB01BC0183E994E00E947B
:10216000DD1A75C10CEB11E0F8016081718182818B
:102170009381681B790B83E994E00E941A1A0E94EC
:102180003E080E5E1F4FF1E0023F1F0769F7E09027
:102190000C04A0900E0440910D04552747FD509566
:1021A000652F752F83E994E02AE030E00E94321A0F
:1021B0000E943E08FF24E7FCF0940F2D1F2D83E9B9
:1021C00094E0B801A7012AE030E00E94321A0E9490
:1021D0003E08BB24A7FCB094CB2CDB2C83E994E015
:1021E000B601A5012AE030E00E94471A30C1809173
:1021F000D4028F5F8093D402815085FF03C0609129
:10220000B60102C06091B50183E994E070E00E94DC
:102210001A1A04EC11E00E943E08F80160817181F5
:102220008281938120EE3EE245E652E40E94221F25
:102230000E940F1E9B01AC0183E994E0B9010E944A
:102240001A1A0E5E1F4FF1E00A3F1F0721F70E9486
:102250003E086091B0027091B10283E994E00E945F
:102260001A1A02EB12E00E943E08F8018191919146
:102270008F01BC01660F771F680F791F83E994E017
:102280000E941A1AF2E0083B1F0769F705E014E004
:10229000F3E0EF2E0E943E08F80161918F016E9DE0
:1022A000B001112468517C4F83E994E00E94DF194A
:1022B000F4E009301F0771F70E943E0840E050E04B
:1022C00060E070E08091B7019091B801019721F42E
:1022D00041E050E060E070E083E994E022E030E02B
:1022E0000E94321A0E943E0883E994E060E070E0A8
:1022F0000E94221AACC083E994E040E050E060E024
:1023000070E00E94D91A0E943E0883E994E060E0E0
:1023100070E00E941A1A0E943E0883E994E060E08F
:1023200070E00E941A1A0E943E0883E994E060E07F
:1023300070E00E941A1A0E943E086091A4027091F7
:10234000A5028091A6029091A7020E940F1E9B01F8
:10235000AC0183E994E0B9010E941A1A0E943E0878
:102360006091A8027091A9028091AA029091AB029B
:102370000E940F1E9B01AC0183E994E0B9010E9409
:102380001A1A02EB12E00E943E08F8018191919125
:102390008F01BC01660F771F680F791F83E994E0F6
:1023A0000E941A1AF2E0083B1F0769F783E994E0DC
:1023B0000E942C194CC08FB7F8948FBF60916503B1
:1023C0007091660383E994E00E94DF190E943E0841
:1023D0008FB7F8948FBF60916F037091700383E99A
:1023E00094E00E94DF190E943E088FB7F8948FBFD7
:1023F0006091790370917A0383E994E00E94DF1978
:102400000E943E088FB7F8948FBF60915B03709174
:102410005C0383E994E00E94DF190E943E088FB7B5
:10242000F8948FBF609183037091840383E994E0F3
:102430000E94DF190E943E088FB7F8948FBF609109
:102440008D0370918E0383E994E00E94E51981E089
:102450000F900F900F90CF91DF911F910F91FF90F0
:10246000EF90DF90CF90BF90AF900895CF92DF9222
:10247000EF92FF920F931F93DF93CF9300D000D082
:10248000CDB7DEB77C0100E010E06E010894C11CFE
:10249000D11C0BC082E991E0B9010E947A03F601D8
:1024A000E00FF11F80830F5F1F4F98012E0D3F1D1E
:1024B0000430110579F729813A814B815C81B9019A
:1024C000CA010F900F900F900F90CF91DF911F9145
:1024D0000F91FF90EF90DF90CF900895EF92FF92D1
:1024E0000F931F93CF93DF93EC017A018B019093AD
:1024F000D3028093D20280910B04882329F0CE016D
:102500000E9436127B018C01E0921601F0921701B5
:102510000093180110931901C801B701A801970190
:102520000E94DD1C6093CA027093CB028093CC02A0
:102530009093CD02C801B70120911A0130911B017F
:1025400040911C0150911D010E94221FA80197017A
:102550000E94221F6093CE027093CF028093D0021C
:102560009093D1029E012C5F3F4FC901DF91CF9123
:102570001F910F91FF90EF900895CF93DF93EC019F
:102580009A01AB019093C3028093C20280910B0425
:10259000882329F0CE010E9436129B01AC012093C2
:1025A000BA023093BB024093BC025093BD0260E07C
:1025B00070E080E89FE30E94DC1C6093BE02709391
:1025C000BF028093C0029093C1029E012C5F3F4FD7
:1025D000C901DF91CF9108956F927F928F929F9260
:1025E000AF92BF92CF92DF92EF92FF920F931F9321
:1025F000DF93CF93CDB7DEB74C013B01FC01718B6C
:10260000608B80910B04882351F1CB010E9436121C
:10261000F401608371838283938383010C5F1F4F76
:10262000C8010E943612F401648375838683978300
:102630000C5F1F4FC8010E943612F401608771873A
:10264000828793870C5F1F4FC8010E943612F401E6
:1026500064877587868797870C5F1F4F18C0F401C2
:102660002083318342835383E482F5820683178378
:10267000A086B186C286D38689899A89AB89BC89AE
:1026800084879587A687B7878B01005F1F4FC80196
:10269000CF91DF911F910F91FF90EF90DF90CF903E
:1026A000BF90AF909F908F907F906F90089582E938
:1026B00091E060E070E00E947A03823051F482E998
:1026C00091E061E070E00E947A038D3F11F481E0B7
:1026D00001C080E080930B040895CF93DF93EC0159
:1026E0008DE991E06CE170E00E948D038DE991E04D
:1026F00069E270E00E94D9038DE991E00E94DC0359
:102700008DE991E06CE170E041E050E00E94FD0352
:1027100006C08DE991E00E949D0380930C048DE931
:1027200091E00E9497038823A1F78DE991E06CE185
:1027300070E00E948D038DE991E06BE270E00E94F1
:10274000D9038DE991E00E94DC038DE991E06CE111
:1027500070E041E050E00E94FD0306C08DE991E089
:102760000E949D0380930D048DE991E00E949703E0
:102770008823A1F78DE991E06CE170E00E948D0360
:102780008DE991E06DE270E00E94D9038DE991E05E
:102790000E94DC038DE991E06CE170E041E050E0E3
:1027A0000E94FD0306C08DE991E00E949D03809385
:1027B0000E048DE991E00E9497038823A1F7809190
:1027C0000C04888380910D04898380910E048A8390
:1027D000DF91CF9108951F9310920C0410920D0475
:1027E00087E380930E048DE991E00E9400048DE957
:1027F00091E06CE170E00E948D038DE991E06FE063
:1028000070E00E94D9038DE991E00E94DC038DE91C
:1028100091E06CE170E041E050E00E94FD0305C0F2
:102820008DE991E00E949D03182F8DE991E00E94AF
:1028300097038823A9F71B33B9F48DE991E06CE184
:1028400070E00E948D038DE991E060E270E00E94EB
:10285000D9038DE991E067E470E00E94D9038DE926
:1028600091E00E94DC0381E01F9108952F923F9236
:102870004F925F926F927F928F929F92AF92BF9290
:10288000CF92DF92EF92FF920F931F93DF93CF933C
:10289000CDB7DEB76F970FB6F894DEBF0FBECDBFD2
:1028A0000E94581B062FB72EC82EE92E8091B0012A
:1028B000102F181B153120F089E090E00E94DE0BEC
:1028C0008091B601811710F41093B6018091B40184
:1028D0009091B501292F3327821B930B810F911DF6
:1028E0009093B5018093B4010AC00E94581B062F33
:1028F000B72EC82EE92E8091B001102F181B14316D
:10290000A0F30093B001B092B101C092B201E09285
:10291000B301CE0101960E946D138AEB91E00E94F3
:102920004A0C8CEC91E00E944A0C8EED91E00E94E2
:102930004A0C4091D6015091D7016091D801709115
:10294000D90188EF91E029810B810E9444083B0165
:102950004C014091C4015091C5016091C601709134
:10296000C70180EF91E02A810B810E9444086C8F9F
:102970007D8F8E8F9F8F8091B7019091B801892BA9
:1029800009F04FC08091D501882309F406C28091D7
:10299000C301882309F401C28091E701882309F467
:1029A000FCC18091D2019091D30146E09695879524
:1029B0004A95E1F79093D1018093D0018091C001B5
:1029C0009091C10136E0969587953A95E1F79093FD
:1029D000BF018093BE018091E4019091E50126E062
:1029E000969587952A95E1F79093E3018093E2010C
:1029F00081E090E09093B8018093B70185E090E08A
:102A00000E94DE0B81E08093090493C18F5F809365
:102A1000B9018FC11092B90183E090E00E94DE0BF2
:102A200088C106E5402E03E0502EF201EE24E39427
:102A30008081843008F0EE243A9623E0E239F207F0
:102A4000B9F7EE2019F400E010E009C08FB7F89450
:102A50008FBF00916F03109170030C5D1540A09023
:102A60001401B0901501A016B1063CF088279927F3
:102A70008A199B090817190744F5B801882777FDBB
:102A80008095982F0E94421E20910C0130910D01DB
:102A900040910E0150910F010E94221F2091DA01F6
:102AA0003091DB014091DC015091DD010E94DC1C82
:102AB0006C8B7D8B8E8B9F8B80E090E0A0E0B0E0F4
:102AC00088879987AA87BB8726C08091DA01909171
:102AD000DB01A091DC01B091DD01B0588C8B9D8BA6
:102AE000AE8BBF8BB801882777FD8095982F0E9409
:102AF000421E20911001309111014091120150911C
:102B000013010E94221FA40193010E94DC1C68870C
:102B100079878A879B87EE2049F08FB7F8948FBF1B
:102B200000916503109166030C5D1540A016B10677
:102B30003CF0882799278A199B090817190744F53B
:102B4000B801882777FD8095982F0E94421E20911A
:102B50000C0130910D0140910E0150910F010E9426
:102B6000221F2091C8013091C9014091CA015091A2
:102B7000CB010E94DC1C688B798B8A8B9B8B80E05D
:102B800090E0A0E0B0E08C839D83AE83BF8328C03B
:102B90008091C8019091C901A091CA01B091CB0167
:102BA000B058888B998BAA8BBB8BB801882777FD8F
:102BB0008095982F0E94421E2091100130911101A2
:102BC00040911201509113010E94221F2C8D3D8DC6
:102BD0004E8D5F8D0E94DC1C6C837D838E839F8372
:102BE000EE2049F08FB7F8948FBF009179031091D0
:102BF0007A030C5D1540B801882777FD8095982FE2
:102C00000E94421E20910C0130910D0140910E0155
:102C100050910F010E94221F2091EC013091ED0193
:102C20004091EE015091EF010E94DC1C688F798F7A
:102C30008A8F9B8F12EB612E12E0712E88249924CB
:102C4000AA24BB24B0E12B2E312C2C0E3D1E8AE190
:102C500090E0889E6001899ED00C989ED00C112433
:102C6000E4E0F0E0EC0FFD1FEA0DFB1D4081518117
:102C700062817381C6018A5A9D4F0E9468067B015A
:102C80008C01F101EA0DFB1D40815181628173814C
:102C9000C601885F9D4F0E9468069B01AC01C80178
:102CA000B7010E94DD1C0E940F1EF3016193719316
:102CB0003F010894811C911C24E030E0A20EB31E59
:102CC00033E08316910419F691E0F201808184309B
:102CD00008F090E02AE030E0420E531E32E943163D
:102CE00033E0530691F7992391F08FB7F8948FBF93
:102CF00080915B0390915C03885E934063E070E099
:102D00000E94881F7093B1026093B00204C01092B9
:102D1000B1021092B0024091B2025091B302809180
:102D2000B0029091B10260E070E020E030E00E94DB
:102D30005D0A83E994E00E948618882349F083E9BC
:102D400094E00E949A188093B80281E08093B902BF
:102D50008091B902882331F08091B8020E94690DF8
:102D60008093B9020E94090C6F960FB6F894DEBFEB
:102D70000FBECDBFCF91DF911F910F91FF90EF90CC
:102D8000DF90CF90BF90AF909F908F907F906F908B
:102D90005F904F903F902F9008958091B901893CAA
:102DA00008F434CE37CE8F929F92AF92BF92CF92DB
:102DB000DF92EF92FF920F931F93CF93DF9380E008
:102DC0000E94F51B83E994E040E052EC61E070E082
:102DD0000E941D180E94450C0E9457130E94D10B9F
:102DE0000E94EB1388E090E04DEC5CEC6CE47EE339
:102DF0000E94BD126C018CEC91E062E00E946009BF
:102E00008AEB91E061E00E9460098EED91E060E064
:102E10000E9460090E9406098AE097EDA3EABCE3DC
:102E200080931A0190931B01A0931C01B0931D0184
:102E3000E0901601F090170100911801109119010E
:102E4000C801B7012AE037ED43EA5CE30E94221F84
:102E5000A80197010E94221F6093CE027093CF02B7
:102E60008093D0029093D102C60140E050E060E828
:102E70007FE30E946E12BC01C0E0D0E0FAE18F2E29
:102E8000912C00D000D0C89DC001C99D900DD89D47
:102E9000900D1124209108013091090140910A01FF
:102EA00050910B01EDB7FEB72183328343835483E6
:102EB000885F9D4F20E030E040E85FE30F2EF0E0B8
:102EC000EF2EF0E0FF2EF0E00F2FF0E01F2FF02D9F
:102ED0000F2EF0E0AF2EF0E0BF2EF8E4CF2EF2EC94
:102EE000DF2EF02D0E94EC12BC0121960F900F9066
:102EF0000F900F90C330D10521F6C0E0D0E0EAE199
:102F00008E2E912C00D000D0C89DC001C99D900D7F
:102F1000D89D900D11242091080130910901409114
:102F20000A0150910B01EDB7FEB721833283438331
:102F300054838A5A9D4F20E030E040EC5FE30F2E2F
:102F4000F0E0EF2EF0E0FF2EF0E00F2FF0E01F2F6B
:102F5000F02D0F2EF0E0AF2EF0E0BF2EF0EFCF2ED1
:102F6000F1ECDF2EF02D0E94EC12BC0121960F90A7
:102F70000F900F900F90C330D10521F681E090E0C3
:102F80000E94DE0B0E94581B6093B0017093B10148
:102F90008093B2019093B301DF91CF911F910F9174
:102FA000FF90EF90DF90CF90BF90AF909F908F9069
:102FB00008950E94BB1B0E94D3160E943614FDCFB9
:102FC0001F920F920FB60F9211242F933F934F939E
:102FD0005F936F937F938F939F93AF93BF93EF9381
:102FE000FF934091C600E0918F04F0919004CF01CF
:102FF000019660E870E00E949C1F9C018091910402
:10300000909192042817390739F0E15FFB4F408314
:103010003093900420938F04FF91EF91BF91AF9173
:103020009F918F917F916F915F914F913F912F91E0
:103030000F900FBE0F901F901895AF92BF92CF9236
:10304000DF92EF92FF920F931F93CF93DF936C0168
:103050007A018B01DC011496AD90BC901597CB01E1
:10306000BA0122E030E040E050E00E94D11F205C35
:103070003D4B404F5F4FCA01B901A80197010E9423
:10308000D11FC901DA010197A109B109292F3A2FEE
:103090004B2F552747FD5A950196A11DB11DE501FE
:1030A0002883E601EE81FF8181508083EA85FB85DC
:1030B000208141E050E0CA010E8402C0880F991FB0
:1030C0000A94E2F7282B2083EA85FB852081CA0138
:1030D0000F8402C0880F991F0A94E2F7282B2083DF
:1030E000EA85FB858081088802C0440F551F0A9439
:1030F000E2F7842B8083DF91CF911F910F91FF9096
:10310000EF90DF90CF90BF90AF900895DC011296C2
:10311000ED91FC911397E058FF4F81919191805868
:103120009F4F20813181821B930B60E870E00E94E9
:103130009C1F0895CF93DF93DC011296ED91FC91D3
:103140001397EF01CE57DF4F48815981E058FF4F69
:1031500080819181E058F0408417950719F42FEF92
:103160003FEF0CC0E40FF51F2081CA01019660E813
:1031700070E00E949C1F9983888330E0C901DF9131
:10318000CF910895FC01A085B18521898C9190E0B3
:10319000022E02C0959587950A94E2F780FFF6CF3C
:1031A0000484F585E02D608308958FE891E0909385
:1031B0009404809393048FE094E09093960480931A
:1031C000950485EC90E0909398048093970484ECA8
:1031D00090E090939A048093990480EC90E090930F
:1031E0009C0480939B0481EC90E090939E048093D8
:1031F0009D0486EC90E09093A00480939F0484E06B
:103200008093A10483E08093A20487E08093A304C9
:1032100085E08093A4040895DC01ED91FC91019078
:10322000F081E02D099508950F931F93CF93DF93BD
:103230008C01EB0109C02196D801ED91FC91019020
:10324000F081E02DC801099568816623A1F7DF911F
:10325000CF911F910F9108950F931F938C01DC0163
:10326000ED91FC910190F081E02D6DE00995D80180
:10327000ED91FC910190F081E02DC8016AE0099583
:103280001F910F9108952F923F924F925F926F92EC
:103290007F928F929F92AF92BF92CF92DF92EF92E6
:1032A000FF920F931F93DF93CF93CDB7DEB7A09715
:1032B0000FB6F894DEBF0FBECDBF1C016A017B01C3
:1032C000411551056105710549F4DC01ED91FC9151
:1032D0000190F081E02D60E3099554C08824992481
:1032E0005401422E55246624772401E010E00C0F8F
:1032F0001D1F080D191DC701B601A30192010E94EF
:10330000AF1FF80160830894811C911CA11CB11CA3
:10331000C701B601A30192010E94AF1FC901DA01E2
:103320006C017D01C114D104E104F104F1F681E0E6
:10333000E82EF12CEC0EFD1EE80CF91C3E01089461
:10334000611C711CD501C4010197A109B1096C016F
:10335000C818D90814C0F601EE0DFF1D60816A304F
:1033600010F4605D01C0695CD101ED91FC910190A8
:10337000F081E02DC10109950894E108F1086E146F
:103380007F0449F7A0960FB6F894DEBF0FBECDBFFD
:10339000CF91DF911F910F91FF90EF90DF90CF9031
:1033A000BF90AF909F908F907F906F905F904F9065
:1033B0003F902F9008952AE00E9443190895AB0191
:1033C00060E070E00E94DB1908950F931F938C0159
:1033D000AB0160E070E00E94DB19C8010E942C196B
:1033E0001F910F910895EF92FF920F931F93CF9328
:1033F000DF93EC017A018B0177FF0FC0E881F9813F
:103400000190F081E02D6DE2099510950095F09402
:10341000E094E11CF11C011D111DCE01B801A701B2
:103420002AE00E944319DF91CF911F910F91FF90E5
:10343000EF900895AB01662757FD6095762F0E94A7
:10344000F31908950F931F938C01AB01662757FD65
:103450006095762F0E94F319C8010E942C191F91C4
:103460000F910895DC012115310541F4ED91FC9196
:103470000190F081E02D642F099508952A303105DF
:1034800019F40E94F31908950E94431908950F93A7
:103490001F938C010E94321AC8010E942C191F919F
:1034A0000F9108959F92AF92BF92CF92DF92EF92C9
:1034B000FF920F931F93CF93DF93EC017A018B015F
:1034C000922ECB01BA0120E030E040E050E00E94B3
:1034D000A31D882364F4E881F9810190F081E02D37
:1034E000CE016DE2099517FB109517F9109520E0B4
:1034F00030E040E05FE3AA240BC0CA01B90120E03C
:1035000030E040E251E40E94A71D9B01AC01A3946E
:10351000A91498F3C801B7010E94DD1C5B016C017E
:103520000E94141E7B018C01CE01B801A7010E94EC
:10353000DB19992029F0CE0160E071E00E94141996
:10354000C801B7010E94401E9B01AC01C601B50134
:103550000E94DC1C20C020E030E040E251E40E94E8
:10356000221F7B018C010E940F1E5B016C01CC2489
:10357000B7FCC094DC2CCE01B601A5010E94F31962
:10358000C601B5010E94421E9B01AC01C801B701F2
:103590000E94DC1C9A949920F1F6DF91CF911F9143
:1035A0000F91FF90EF90DF90CF90BF90AF909F90E2
:1035B000089522E00E94521A08950F931F938C01E0
:1035C0000E94D91AC8010E942C191F910F910895C9
:1035D0001F920F920FB60F9211242F938F939F93E8
:1035E000AF93BF938091A5049091A604A091A704E6
:1035F000B091A8040196A11DB11D8093A5049093DC
:10360000A604A093A704B093A8048091A904909164
:10361000AA04A091AB04B091AC048050904CAF4F81
:10362000BF4F8093A9049093AA04A093AB04B093D6
:10363000AC0427C08091A9049091AA04A091AB0486
:10364000B091AC0480589E43A040B0408093A90440
:103650009093AA04A093AB04B093AC048091AD0402
:103660009091AE04A091AF04B091B0040196A11D59
:10367000B11D8093AD049093AE04A093AF04B093BA
:10368000B0048091A9049091AA04A091AB04B091D8
:10369000AC0481589E43A040B04060F6BF91AF910A
:1036A0009F918F912F910F900FBE0F901F901895A3
:1036B0008FB7F8942091AD043091AE044091AF04DF
:1036C0005091B0048FBFB901CA0108956FB7F89443
:1036D00086B590E0A0E0B0E0A89B08C00097A105E7
:1036E000B10521F480E091E0A0E0B0E02091A504D4
:1036F0003091A6044091A7045091A8046FBF542FA5
:10370000432F322F2227280F391F4A1F5B1F82E0C9
:10371000220F331F441F551F8A95D1F7B901CA01E3
:103720000895EF92FF920F931F937B018C018FB747
:10373000F8944091AD045091AE046091AF04709143
:10374000B0048FBF2FB7F8948091AD049091AE0470
:10375000A091AF04B091B0042FBF841B950BA60BB2
:10376000B70BE816F9060A071B0760F71F910F91C0
:10377000FF90EF900895789484B5826084BD84B5FD
:10378000816084BD85B5826085BD85B5816085BD5C
:10379000EEE6F0E0808181608083E1E8F0E0808106
:1037A00082608083808181608083E0E8F0E08081B6
:1037B00081608083E1EBF0E0808184608083E0EBD6
:1037C000F0E0808181608083EAE7F0E080818460BE
:1037D000808380818260808380818160808380811A
:1037E000806880831092C100089580931E0108951F
:1037F000877090911E019295990F990F907C982B4C
:1038000090937C0080917A00806480937A0080910C
:103810007A0086FDFCCF2091780040917900942FAA
:1038200080E030E0282B392BC90108951F93CF93F6
:10383000DF93182FEB0161E00E946F1CE12FF0E095
:10384000E75FFE4F8491833051F48091800080685F
:1038500080938000D0938900C09388003CC084305E
:1038600051F480918000806280938000D0938B001F
:10387000C0938A0030C0813039F4209729F184B593
:10388000806884BDC7BD27C0823039F42097E1F03D
:1038900084B5806284BDC8BD1EC0863041F480916D
:1038A000B00080688093B000C093B30014C087302C
:1038B00041F48091B00080628093B000C093B40066
:1038C0000AC0C038D1051CF4812F60E002C0812FEE
:1038D00061E00E948F1CDF91CF911F910895282FE6
:1038E00030E0C9018B509F4FFC0194912F513F4F05
:1038F000F9018491882391F0E82FF0E0EE0FFF1F8B
:10390000ED53FF4FA591B491662329F48C919095C6
:1039100089238C9308958C91892B8C930895482F3B
:1039200050E0CA01875F9E4FFC012491CA018B5071
:103930009F4FFC0194914F515F4FFA013491332313
:10394000D1F1222331F1233021F4809180008F774F
:1039500005C0243031F4809180008F7D80938000F9
:1039600018C0213019F484B58F7704C0223021F4B7
:1039700084B58F7D84BD0DC0263021F48091B000C8
:103980008F7705C0273029F48091B0008F7D809318
:10399000B000E32FF0E0EE0FFF1FE353FF4FA591C0
:1039A000B491662329F48C91909589238C93089582
:1039B0008C91892B8C9308955058BB27AA270ED041
:1039C000FCC1EDD130F0F2D120F031F49F3F11F481
:1039D0001EF4BDC10EF4E095E7FBB3C1E92FFED1A3
:1039E00080F3BA17620773078407950718F071F41C
:1039F0009EF516C20EF4E0950B2EBA2FA02D0B01EA
:103A0000B90190010C01CA01A0011124FF27591B23
:103A100099F0593F50F4503E68F11A16F040A22F29
:103A2000232F342F4427585FF3CF4695379527959A
:103A3000A795F0405395C9F77EF41F16BA0B620B99
:103A4000730B840BBAF09150A1F0FF0FBB1F661FE0
:103A5000771F881FC2F70EC0BA0F621F731F841F23
:103A600048F4879577956795B795F7959E3F08F049
:103A7000B3CF9395880F08F09927EE0F9795879508
:103A800008958DD158F080E891E009F49EEF8ED131
:103A900028F040E851E059F45EEF09C058C1C0C1B8
:103AA000E92FE0789BD168F3092E052AC1F3261788
:103AB00037074807590738F00E2E07F8E02569F058
:103AC000E025E0640AC0EF6307F8009407FADB0121
:103AD000B9019D01DC01CA01AD01EF9347D06DD161
:103AE0000AD05F91552331F02BED3FE049E450FDC2
:103AF00049EC63CF0895DF93DD27B92FBF7740E806
:103B00005FE31616170648075B0710F4D92F93D109
:103B10009F938F937F936F93F8D1E6E9F0E01AD1EA
:103B20004CD12F913F914F915F9198D1DD2349F076
:103B30009058A2EA2AED3FE049EC5FE3D0785D2798
:103B40004DDFDF913AC1D9D008F481E008950CD05F
:103B500034C12CD140F023D130F021F45F3F19F073
:103B6000F0C051115EC1F3C039D198F39923C9F364
:103B70005523B1F3951B550BBB27AA276217730773
:103B8000840738F09F5F5F4F220F331F441FAA1F27
:103B9000A9F333D00E2E3AF0E0E830D091505040E7
:103BA000E695001CCAF729D0FE2F27D0660F771F95
:103BB000881FBB1F261737074807AB07B0E809F077
:103BC000BB0B802DBF01FF2793585F4F2AF09E3F0C
:103BD000510568F0B6C025C15F3FECF3983EDCF3B9
:103BE000869577956795B795F7959F5FC9F7880F85
:103BF000911D9695879597F90895E1E0660F771FD7
:103C0000881FBB1F621773078407BA0720F0621B67
:103C1000730B840BBA0BEE1F88F7E095089504D060
:103C20006894B111FEC00895E1D088F09F5790F0DC
:103C3000B92F9927B751A0F0D1F0660F771F881FD1
:103C4000991F1AF0BA95C9F712C0B13081F0E8D0C7
:103C5000B1E00895E5C0672F782F8827B85F39F065
:103C6000B93FCCF3869577956795B395D9F73EF430
:103C700090958095709561957F4F8F4F9F4F0895D8
:103C8000E89409C097FB3EF49095809570956195F6
:103C90007F4F8F4F9F4F9923A9F0F92F96E9BB27AC
:103CA0009395F695879577956795B795F111F8CF28
:103CB000FAF4BB0F11F460FF1BC06F5F7F4F8F4F93
:103CC0009F4F16C0882311F096E911C0772321F089
:103CD0009EE8872F762F05C0662371F096E8862F21
:103CE00070E060E02AF09A95660F771F881FDAF778
:103CF000880F9695879597F90895990F0008550FA5
:103D0000AA0BE0E8FEEF16161706E807F907C0F061
:103D100012161306E407F50798F0621B730B840B69
:103D2000950B39F40A2661F0232B242B252B21F443
:103D300008950A2609F4A140A6958FEF811D811DE3
:103D4000089597F99F6780E870E060E008959FEF1D
:103D500080EC0895DF93CF931F930F93FF92EF9220
:103D6000DF927B018C01689405C0DA2EEF0176D0DA
:103D7000FE01E894A5912591359145915591AEF3B9
:103D8000EF012CDEFE019701A801DA9479F7DF90AC
:103D9000EF90FF900F911F91CF91DF910895002434
:103DA0000A941616170618060906089500240A94A0
:103DB00012161306140605060895092E0394000C26
:103DC00011F4882352F0BB0F40F4BF2B11F460FFB5
:103DD00004C06F5F7F4F8F4F9F4F089557FD9058DE
:103DE000440F551F59F05F3F71F04795880F97FBBF
:103DF000991F61F09F3F79F0879508951216130679
:103E00001406551FF2CF4695F1DF08C016161706A7
:103E10001806991FF1CF86957105610508940895DC
:103E2000E894BB2766277727CB0197F9089565DFCC
:103E300008F48FEF08959B01AC0160E070E080E82A
:103E40009FE385CE0BD0B9CFAADF28F0AFDF18F003
:103E5000952309F076CF7BCF1124E3CFBFDFA0F30A
:103E6000959FD1F3950F50E0551F629FF001729F0F
:103E7000BB27F00DB11D639FAA27F00DB11DAA1F2E
:103E8000649F6627B00DA11D661F829F2227B00D7B
:103E9000A11D621F739FB00DA11D621F839FA00D06
:103EA000611D221F749F3327A00D611D231F849F56
:103EB000600D211D822F762F6A2F11249F575040AD
:103EC0008AF0E1F088234AF0EE0FFF1FBB1F661F48
:103ED000771F881F91505040A9F79E3F510570F001
:103EE00030CF9FCF5F3FECF3983EDCF3869577951C
:103EF0006795B795F795E7959F5FC1F7FE2B880FFC
:103F0000911D9695879597F908959B01AC019ACFDD
:103F1000AA1BBB1B51E107C0AA1FBB1FA617B707EF
:103F200010F0A61BB70B881F991F5A95A9F780950B
:103F30009095BC01CD01089597FB092E07260AD064
:103F400077FD04D0E5DF06D000201AF47095619566
:103F50007F4F0895F6F7909581959F4F0895A1E2C0
:103F60001A2EAA1BBB1BFD010DC0AA1FBB1FEE1FF3
:103F7000FF1FA217B307E407F50720F0A21BB30B3E
:103F8000E40BF50B661F771F881F991F1A9469F7BA
:103F900060957095809590959B01AC01BD01CF0116
:103FA000089597FB092E05260ED057FD04D0D7DFC4
:103FB0000AD0001C38F450954095309521953F4F1C
:103FC0004F4F5F4F0895F6F79095809570956195E6
:103FD0007F4F8F4F9F4F0895EE0FFF1F0590F49175
:103FE000E02D0994911106C0803219F08950855056
:103FF000D0F708959927882708952F923F924F92DE
:104000005F926F927F928F929F92AF92BF92CF9268
:10401000DF92EF92FF920F931F93CF93DF93CDB771
:10402000DEB7CA1BDB0B0FB6F894DEBF0FBECDBFE9
:1040300009942A88398848885F846E847D848C84BA
:104040009B84AA84B984C884DF80EE80FD800C81C3
:104050001B81AA81B981CE0FD11D0FB6F894DEBFA6
:0C4060000FBECDBFED010895F894FFCF16
:10406C002E002000B7040000000040406F12033BFC
:10407C006F12033B64000000803F0AD7A33C01FE93
:10408C0000FF0505052300FE05050505052300FEBB
:10409C000505050505050505052300FE05050505B2
:1040AC0005050505050505050505050505050505B4
:1040BC0000FF323200FF191900FF051900FF05053A
:1040CC0000FE050505050505052300FF0A0A001F6E
:1040DC0001210127012F013B015101550159015DBE
:1040EC000161016B016B006C006D0000000000C2EF
:0240FC001800AA
:00000001FF
